:100000000C945F060C94DB310C9408320C94870638
:100010000C9487060C9487060C9487060C9487062C
:100020000C9487060C9487060C9487060C9487061C
:100030000C9487060C9487060C9487060C9487060C
:100040000C9435320C9487060C94B3330C94013421
:100050000C9487060C9487060C9487060C948706EC
:100060000C94E7150C948706000070000000002433
:10007000000000020003000000650054FFEF0000D4
:10008000FA80000B12820001030C30C30E8C8CE945
:1000900014D5400213710F8E3883F8833000F88333
:1000A000258EF8833000F883FFFFFFFF0FFEA9D6EF
:1000B000240004001A8279A10000003CFFFF000028
:1000C0000010000038836FA2003E033040000000A3
:1000D00002CAE3093E80000020000000000000008A
:1000E0004000000060000000000C0000000C186ED2
:1000F000000006920A16C0DFFFFF0256FD8CD37780
:10010000FFE1C496E0C5BEAA00000000FFFF0B2B74
:1001100000001657000003594000000000001DFABF
:1001200000026C1D000000003FFFDFEB003EB3B695
:10013000000D227800002F3C00000000001942B59D
:10014000000039A20000B365D90E9FC91DCF4C3401
:1001500030000000500000003BB67AE80064000068
:1001600000C8000000000000100000001000FA921B
:100170001000225E000D229F0001000000320000EE
:10018000FF46000063D400001000000004D6000009
:1001900004CC000004CC00000000107200000040FD
:1001A000000000000000000000060002000500073B
:1001B00000000000006400000000000000000005D6
:1001C00000050064002000000000000000000000A6
:1001D000000040000000030000000032F89800001A
:1001E000FF650000830F0000FF9BFC000000000083
:1001F00000000000000000000000000000000000FF
:1002000000000000000000000000000000000000EE
:100210000000000000001000400000000000000688
:100220000000B26A000200000001FB8300680000C9
:1002300000D9FC007CF1FF83000000000065000095
:10024000006403E8006400280000002500000000AE
:1002500016A000000000100000001000002F000099
:10026000000001F40000100000280000FFFF45819D
:10027000FFFFFA72000000000000000000440005CB
:100280000005BAC6004778A2000000010000000087
:1002900000000600000000140000254D002F706DC6
:1002A000000005AE000C02D00000000000000000BD
:1002B0000000000000000000001B00000000000023
:1002C00000000000000000000064000000080000C2
:1002D000000000000000000000000000000000001E
:1002E000000000000000000000000000000000000E
:1002F00000000000000000000000000000000000FE
:1003000000000000000000000000000000000000ED
:1003100000000000000000000000000000000000DD
:100320000000000000000000001B000000000000B2
:1003300000000000000E000E00000AC700040000CC
:1003400000000032FFFFFF9C00000B2B00000002AA
:100350000000000100000064FFE500000000000054
:10036000000000000000000000000001000000008C
:10037000000100000000000000018000000180007A
:1003800000018000002426D30000000000000000CF
:10039000000600100096003C000000000000000075
:1003A00000000000000000000C0A4E68CDCF770965
:1003B00050166759C619CE820000000000000000E8
:1003C000000000000000000000000000000000002D
:1003D00017D78400030000000000000000000000A8
:1003E000C7938F9D1E1B1C19000000000000000019
:1003F00000000000000000000000000000000000FD
:100400000203188500004000000000030000000304
:10041000000000000000000040000000000000009C
:1004200000000000000000000000000000000000CC
:1004300000000000000000000000000000000000BC
:10044000000000000000000000000000677DDF7E6B
:1004500072902E554CF6E688000000000000000067
:100460000000000000000000D8DCB4B8B0D8B9AB80
:10047000F3F8FAB3B7BB8E9EAEF132F51BF1B4B808
:10048000B08097F1A9DFDFDFAADFDFDFF2AAC5CDF9
:10049000C7A90CC92C97F1A989264666B28999A9E2
:1004A0002D557DB0B08AA896365676F1BAA3B4B26F
:1004B00080C0B8A89711B28398BAA3F0240844105A
:1004C0006418B2B9B49883F1A329557DBAB5B1A324
:1004D0008393F0002850F5B2B6AA839328547CF198
:1004E000B9A3829361BAA2DADEDFDB819AB9AEF5F5
:1004F000606870F1DABAA2DFD9BAA2FAB9A382921F
:10050000DB31BAA2D9BAA2F8DF85A4D0C1BBAD83D2
:10051000C2C5C7B8A2DFDFDFBAA0DFDFDFD8D8F1FE
:10052000B8AAB38DB4980D355DB2B6BAAF8C961932
:100530008F9FA70E161EB49AB8AA872C547CBAA413
:10054000B08AB691325676B28494A4C808CDD8B891
:10055000B4B0F19982A82D557D98A80E161EA22C34
:10056000547C92A4F02C5078F184A898C4CDFCD887
:100570000DDBA8FC2DF3D9BAA6F8DABAA6DED8BAF4
:10058000B2B68696A6D0F3C841DAA6C8F8D8B0B4F9
:10059000B882A892F52C548898F135D9F418D8F17E
:1005A000A2D0F8F9A884D9C7DFF8F883C5DADF69E3
:1005B000DF83C1D8F40114F1A8824EA884F311D1CD
:1005C00082F5D992289788F109F41C1CD884A8F3E5
:1005D000C0F9D1D99782F129F40DD8F3F9F9D1D91D
:1005E00082F4C203D8DEDF1AD8F1A2FAF9A88498FF
:1005F000D9C7DFF8F8F883C7DADF69DFF883C3D833
:10060000F40114F198A8822EA884F311D182F5D9AF
:1006100092509788F109F41CD884A8F3C0F8F9D156
:10062000D99782F149F40DD8F3F9F9D1D982F4C4FC
:1006300003D8DEDFD8F1AD8898CCA809F9D9829229
:10064000A8F57CF1883ACF944A6E98DB6931DAAD2F
:10065000F2DEF9D88795A8F221D1DAA5F9F417D9F5
:10066000F1AE8ED0C0C3AE82C684C3A88595C8A59E
:1006700088F2C0F1F4010EF18E9EA8C63E56F554E4
:10068000F18872F40115F19845856EF58E9E048807
:10069000F142985A8E9E068869F4011CF1981E1149
:1006A00008D0F504F11E970202983625DBF9D985AA
:1006B000A5F3C1DA85A5F3DFD88595A8F309DAA5F6
:1006C000FAD88292A8F578F1881A849F2688982112
:1006D000DAF41DF3D8879F39D1AFD9DFDFFBF9F406
:1006E0000CF3D8FAD0F8DAF9F9D0DFD9F9D8F40B4D
:1006F000D8F3879F39D1AFD9DFDFF41DF3D8FAFCE7
:10070000A869F9F9AFD0DADEFAD9F88F9FA8F1CC51
:10071000F398DB45D9AFDFD0F8D8F18F9FA8CAF3A3
:100720008809DAAF8FCBF8D8F2AD978D0CD9A5DF59
:10073000F9BAA6F3FAF412F2D8950DD1D9BAA6F304
:10074000FADAA5F2C1BAA6F3DFD8F1BAB2B6869644
:10075000A6D0CAF349DAA6CBF8D8B0B4B8D8AD84DD
:10076000F2C0DFF18FCBC3A8B2B68696C8C1CBC3A7
:10077000F3B0B48898A821DB718D9D71859521D93E
:10078000ADF2FAD88597A828D9F408D8F28D29DADD
:10079000F405D9F285A4C2F2D8A88D9401D1D9F478
:1007A00011F2D88721D8F40AD8F28498A8C801D1C8
:1007B000D9F411D8F3A4C8BBAFD0F2DEF8F8F8F83A
:1007C000F8F8F8F8D8F1B8F6B5B9B08A95A3DE3CD8
:1007D000A3D9F8D85CA3D9F8D87CA3D9F8D8F8F96C
:1007E000D1A5D9DFDAFAD8B18530F7D9DED8F8301B
:1007F000ADDADED8F2B48C99A32D557DA083DFDF6E
:10080000DFB591A0F629D9FBD8A0FC29D9FAD8A048
:10081000D051D9F8D8FC51D9F9D879D9FBD8A0D082
:10082000FC79D9FAD8A1F9F9F9F9F9A0DADFDFDF13
:10083000D8A1F8F8F8F8F8ACDEF8ADDE8393AC2C6C
:10084000547CF1A8DFDFDFF69D2CDAA0DFD9FADBDC
:100850002DF8D8A850DAA0D0DED9D0F8F8F8DB55BA
:10086000F8D8A878DAA0D0DFD9D0FAF8F8F8F8DB11
:100870007DF8D89CA88CF530DB38D9D0DEDFA0D04D
:10088000DEDFD8A848DB58D9DFD0DEA0DFD0DED845
:10089000A868DB70D9DFDFA0DFDFD8F1A888902C53
:1008A000547C98A8D05C38D1DAF2AE8CDFF9D8B09D
:1008B00087A8C1C1B188A8C6F9F9DA36D8A8F9DA8B
:1008C00036D8A8F9DA36D8A8F9DA36D8A8F9DA3657
:1008D000D8F78D9DADF818DAF2AEDFD8F7ADFA3063
:1008E000D9A4DEF9D8F2AEDEFAF983A7D9C3C5C719
:1008F000F1889BA77AADF7DEDFA4F8849408A79768
:10090000F300AEF29819A488C6A39488F632DFF2F9
:100910008393DB09D9F2AADFD8D8AEF8F9D1DAF39C
:10092000A4DEA7F1889B7AD8F38494AE19F9DAAAE9
:10093000F1DFD8A881C0C3C5C7A39283F628ADDE76
:10094000D9F8D8A350ADD9F8D8A378ADD9F8D8F84C
:10095000F9D1A1DADEC3C5C7D8A18194F818F2B0E5
:1009600089ACC3C5C7F1D8B8B4B09786A8319B0687
:100970009907AB9728889BF00C201440B0B4B8F0CE
:10098000A88A9A285078B79BA8295179247059448D
:100990006938644831F1BBAB88002C547CF0B38BD0
:1009A000B8A804285078F1B088B49726A85998BB05
:1009B000ABB38B02264666B0B8F08A9CA829517961
:1009C0008B2951798A2470598B2058718A4469384F
:1009D0008B3940688A6448318B30496088F1AC00BB
:1009E0002C547CF08CA804285078F1889726A859BC
:1009F00098AC8C02264666F0899CA829517924700F
:100A000059446938644831A98809205970AB1138B4
:100A10004069A8193148608CA83C415C207C00F1F9
:100A200087981986A86E767EA999882D557DD8B1AC
:100A3000B5B9A3DFDFDFAED0DFAAD0DEF2ABF8F9C5
:100A4000D9B087C4AAF1DFDFBBAFDFDFB9D8B1F11E
:100A5000A3978E60DFB084F2C8F8F9D9DED8938509
:100A6000F14AB183A308B5839A0810B79F10D8F153
:100A7000B0BAAEB08AC2B2B68E9EF1FBD9F41DD820
:100A8000F9D90CF1D8F8F8AD61D9AEFBD8F40CF176
:100A9000D8F8F8AD19D9AEFBDFD8F416F1D8F8AD17
:100AA0008D61D9F4F4ACF59C9C8DDF2BBAB6AEFA0F
:100AB000F8F40BD8F1AED0F8AD51DAAEFAF8F1D8BF
:100AC000B9B1B6A3839C08B9B1839AB5AAC0FD3069
:100AD00083B79F10B58B93F20202D1ABDADED8F167
:100AE000B080BAABC0C3B284C1C3D8B1B9F38BA3D1
:100AF00091B609B4D9ABDEB0879CB9A3DDF1B38B55
:100B00008B8B8B8BB087A3A3A3A3B28BB69BF2A3D3
:100B1000A3A3A3A3A3A3A3A3A3F1B087B59AA3F30D
:100B20009BA3A3DCBAACDFB9A3A3A3A3A3A3A3A3F2
:100B3000A3A3A3A3A3A3A3A3D8D8D8BBB3B7F1AA55
:100B4000F9DAFFD9809AAA28B48098A720B79787A6
:100B5000A86688F07951F1902C870CA78197629351
:100B6000F071716085940129517990A5F1284C6C40
:100B7000870C95188578A38390284C6C886CD8F3E3
:100B8000A28200F210A8921980A2F2D926D8F18888
:100B9000A84DD948D896A83980D93CD89580A8398D
:100BA000A68698D92CDA87A72CD8A8899519A98068
:100BB000D938D8A88939A980DA3CD8A82EA8399084
:100BC000D90CD8A8953198D90CD8A809D9FFD80143
:100BD000DAFFD89539A9DA26FFD890A80D8999A807
:100BE00010809821DA2ED88999A83180DA2ED8A8D9
:100BF00086963180DA2ED8A8873180DA2ED8A8825E
:100C000092F34180F1D92ED8A882F31980F1D92E20
:100C1000D882ACF3C0A28022F1A62EA72EA92298DA
:100C2000A829DAACDEFFD8A2F22AF1A92E8292A876
:100C3000F23180A696F1D900AC8C9C0C30ACDED0A1
:100C4000DEFFD88C9CACD010ACDE8092A2F24C823D
:100C5000A8F1CAF235F19688A6D900D8F1FF0000B4
:100C60000000240027002A000000000025002800C2
:100C70002B000000000023002600290004040404C7
:100C80000404040402020202020203030303030336
:100C90000102040810204080010204081020010213
:100CA00004081020000000070002010000030406F1
:100CB0000000000000000000C51083146F351124EF
:100CC0001FBECFEFD8E0DEBFCDBF14E0A0E0B1E0A3
:100CD000EEE5F4E702C005900D92A03CB107D9F70C
:100CE00016E0A0ECB4E001C01D92A537B107E1F712
:100CF0001CE0CEEBDCE004C02297FE010E94293A02
:100D0000C83BD107C9F70E94C5350C942D3A0C9405
:100D10000000A0E3B0E0EFE8F6E00C94F039A8E0C2
:100D20004E010894811C911CF401BA2F1192BA95BE
:100D3000E9F729833A834B835C836D837E838F83BA
:100D40009887CE010996FC011192AA95E9F7A98628
:100D5000BA86CB86DC86ED86FE860F87188B2981C6
:100D60003A814B815C812DA73EA74FA758AB7901F3
:100D70008A018FEF9FEFA0E0B0E0E822F9220A237A
:100D80001B231A014424552429853A854B855C850B
:100D900029A73AA74BA75CA759016A01A822B92243
:100DA000CA22DB223A0188249924C601B501A80190
:100DB00097010E946D396DA37EA38FA398A7C401EC
:100DC000B3010E946D3969A37AA38BA39CA3C601CA
:100DD000B501A20191010E946D397B018C01C40112
:100DE000B3010E946D395B016C0189A19AA1ABA18D
:100DF000BCA18E0D9F1DA01FB11F89A39AA3ABA3F9
:100E0000BCA32DA13EA14FA158A5CA01AA27BB276B
:100E100029A13AA14BA15CA1280F391F4A1F5B1FD2
:100E200029A33AA34BA35CA32E153F054007510706
:100E300040F480E090E0A1E0B0E0A80EB91ECA1E28
:100E4000DB1E89A19AA1ABA1BCA19D014427552716
:100E50002A0D3B1D4C1D5D1D2D8F3E8F4F8F58A3BE
:100E60006C01BB24AA248DA19EA1AFA1B8A5A0703E
:100E7000B070A80EB91ECA1EDB1EA98EBA8ECB8E0C
:100E8000DC8E9A8C8B8C7C8C9E8D6F8D78A1FE0174
:100E9000719688E0DF011D928A95E9F72D8B9E8B74
:100EA0006F8B788F2D853E854F8558896DA57EA5E2
:100EB0008FA598A90E946D397B018C012D813E81FF
:100EC0004F81588569A57AA58BA59CA50E946D398F
:100ED000E60EF71E081F191F6D897E898F89988D70
:100EE0006E0D7F1D801F911F6D8B7E8B8F8B988F5A
:100EF000EE892A2D392D482D572D7E2F8F89988DDB
:100F0000E096E2E10C940C3AEF92FF920F93DF939C
:100F1000CF93CDB7DEB760970FB6F894DEBF0FBEA4
:100F2000CDBFA82F002309F461C07E010894E11C05
:100F3000F11C88E0F70111928A95E9F729833A8339
:100F40004B835C836D837E83AF83988780E2801BB5
:100F5000E82FFF27E7FDF09549815A816B817C815D
:100F6000181684F019861A861B861C8688279927EE
:100F70008E1B9F0B04C0440F551F661F771F8A9559
:100F8000D2F728C0202F332727FD3095DB01CA0177
:100F9000022E04C0880F991FAA1FBB1F0A94D2F704
:100FA00089879A87AB87BC8704C0769567955795E4
:100FB0004795EA95D2F78D819E81AF81B88504C0AF
:100FC000880F991FAA1FBB1F2A95D2F7482B592BB0
:100FD0006A2B7B2B4D875E876F87788B29853A85B7
:100FE0004B855C856D857E85AF8598898A2F609657
:100FF0000FB6F894DEBF0FBECDBFCF91DF910F913A
:10100000FF90EF900895EF92FF920F93DF93CF93AD
:10101000CDB7DEB760970FB6F894DEBF0FBECDBF79
:10102000A82F002309F467C07E010894E11CF11C7D
:1010300088E0F70111928A95E9F729833A834B8377
:101040005C836D837E83AF83988780E2801B4D81B4
:101050005E816F817885E82FFF27E7FDF0951816F0
:10106000B4F0DB01CA01BB0F880B982FDC018D8720
:101070009E87AF87B88B882799278E1B9F0B04C04C
:1010800075956795579547958A95D2F728C0202F73
:10109000332727FD3095DB01CA01022E04C0B59528
:1010A000A795979587950A94D2F78D879E87AF87E6
:1010B000B88B04C0440F551F661F771FEA95D2F7FF
:1010C00089819A81AB81BC8104C0B695A79597951B
:1010D00087952A95D2F7482B592B6A2B7B2B49876A
:1010E0005A876B877C8729853A854B855C856D851A
:1010F0007E85AF8598898A2F60960FB6F894DEBFFB
:101100000FBECDBFCF91DF910F91FF90EF9008956B
:10111000A2E7B0E0EEE8F8E00C94F039982E892EC2
:10112000712E88E0FE013196DF01682E1D926A94CF
:10113000E9F729833A834B835C836D837E839F82A7
:101140009887FE013996DF011D928A95E9F7A986F5
:10115000BA86CB86DC86ED86FE860F87188B8D815E
:101160009E81AF81B885B7FD07C0E1961CAE1DAE6C
:101170001EAE1FAEE19764C0219581E0121608F003
:1011800080E0319591E0131608F090E0B32FB81B82
:1011900081E03B1708F080E0982B419531E0141670
:1011A00008F030E0A42FA91B81E04A1708F080E086
:1011B000382B519591E0151608F090E0F52FF31BB0
:1011C00081E05F1708F080E0982B619531E01616FA
:1011D00008F030E0E62FE91B81E06E1708F080E0B0
:1011E000382B719541E0171608F040E0572F531B3C
:1011F00081E0751708F080E0482B892D819591E0FA
:10120000181608F090E0682E641A462D31E0861515
:1012100008F030E0932B882D8195891B2983BA83B0
:10122000AB83FC83ED835E834F8388872FEF3FEF93
:101230004FEF5FEFE1962CAF3DAF4EAF5FAFE19761
:101240008D859E85AF85B889B7FF6AC0E1964CADA4
:101250005DAD6EAD7FADE197409550956095709511
:10126000E1964CAF5DAF6EAF7FAFE197A19481E0A7
:101270001A1408F080E0B19491E01B1408F090E09B
:101280006B2D681B81E0B61608F080E0982BC194A6
:1012900021E01C1408F020E05C2D591B81E0C516EC
:1012A00008F080E0282BD19491E01D1408F090E024
:1012B0004D2D421B81E0D41608F080E0982BE1947C
:1012C00021E01E1408F020E03E2D391B81E0E316DA
:1012D00008F080E0282BF19491E01F1408F090E0D2
:1012E0007F2D721B272F81E0F71608F080E0982BE6
:1012F000019511E0101608F010E0802F891B982F3F
:1013000081E0091708F080E0182B872D8195811B5B
:10131000A9866A875B874C873D872E879F87888B46
:1013200099812A813B814C815D816E817F81A88575
:10133000B9851A850B85FC84ED84DE84CF84B8885A
:1013400088E0E1E18E2E912C8C0E9D1EF401682E1A
:1013500011926A94E9F7998B2A8B3B8B4C8B5D8BAE
:101360006E8B7F8BA88F9E01275E3F4FF9011192F4
:101370008A95E9F7B98F1A8F0B8FFC8EED8EDE8E72
:10138000CF8EB8A2298C3A8C4B8C5C8CED8CFE8C69
:101390000F8D18A169887A888B889C8821966CAEFD
:1013A0007DAE8EAE9FAE21976D887E888F88988C9B
:1013B000E114F1040105110509F0D9C362147304A5
:1013C0008404950408F057C100E0201600E03006C0
:1013D00001E0400600E0500688F41FEF21163104BA
:1013E0004104510439F030F048E0E42EF12C012D95
:1013F000112D18C0EE24FF24870114C020E022160E
:1014000020E0320620E0420621E0520630F038E1CA
:10141000E32EF12C012D112D05C020E1E22EF12C3F
:10142000012D112DD201C1010E2C04C0B695A79536
:10143000979587950A94D2F783509D4FDC012C91A4
:1014400080E290E0A0E0B0E08E199F09A00BB10B04
:101450007C018D01E21AF10801091109E114F1047E
:1014600001051105D1F10E2C04C0220C331C441CC3
:10147000551C0A94D2F7A40193010E2C04C0220F2C
:10148000331F441F551F0A94D2F780E290E08E1953
:101490009F0921966CAC7DAC8EAC9FAC219704C0AB
:1014A00096948794779467948A95D2F7622A732AE0
:1014B000842A952A2196ACACBDACCEACDFAC21978A
:1014C00004C0AA0CBB1CCC1CDD1CEA94D2F72196EC
:1014D000ACAEBDAECEAEDFAE21976201EE24FF24EE
:1014E0002996CCAEDDAEEEAEFFAE2997920181011A
:1014F000207030702D960CAF1DAF2EAF3FAF2D97E3
:10150000C401B301A70196010E94B3397B018C018C
:10151000C401B30129962CAD3DAD4EAD5FAD299709
:101520000E94B339C901DA013C014D01C401B30184
:101530002D962CAD3DAD4EAD5FAD2D970E946D3912
:101540009B01AC018701FF24EE242196ACACBDAC1D
:10155000CEACDFAC2197C601AA27BB275701680193
:10156000A82AB92ACA2ADB2AA216B306C406D506B7
:10157000E0F408946108710881089108A20CB31C7A
:10158000C41CD51CA214B304C404D50470F0A21664
:10159000B306C406D50648F40894610871088108AA
:1015A0009108A20CB31CC41CD51CA21AB30AC40A0D
:1015B000D50AC601B50129962CAD3DAD4EAD5FAD46
:1015C00029970E94B3397B018C01C601B501299688
:1015D0002CAD3DAD4EAD5FAD29970E94B339C90129
:1015E000DA015C016D01C601B5012D962CAD3DAD52
:1015F0004EAD5FAD2D970E946D399B01AC01870107
:10160000FF24EE2421968CAD9DADAEADBFAD2197EC
:10161000A070B070E82AF92A0A2B1B2BE216F306F9
:1016200004071507C0F40894A108B108C108D1083F
:10163000E20CF31C041D151DE214F304040515054A
:1016400050F0E216F3060407150728F40894A108E1
:10165000B108C108D108D3019927882786017501EF
:10166000E82AF92A0A2B1B2B2596ECAEFDAE0EAF0D
:101670001FAF2597EBC4211431044104510471F4C8
:1016800061E070E080E090E020E030E040E050E099
:101690000E94B339C901DA011C012D0100E02016B6
:1016A00000E0300601E0400600E0500688F41FEF3D
:1016B000211631044104510431F028F048E050E093
:1016C00060E070E017C040E050E060E070E012C001
:1016D00020E0221620E0320620E0420621E05206F9
:1016E00028F048E150E060E070E004C040E150E0E4
:1016F00060E070E0D201C101042E04C0B695A79548
:10170000979587950A94D2F783509D4FDC012C91D1
:10171000E0E2EE2EF12C012D112DD801C701841B22
:10172000950BA60BB70B821B9109A109B109009774
:10173000A105B10561F464015301A218B308C408FE
:10174000D50831E0632E712C812C912C24C1E396B5
:101750008FAFE397082E04C0220C331C441C551C89
:101760000A94D2F7EE2DE81B640153010E2E04C03B
:10177000D694C794B794A7940A94D2F7A40193017E
:10178000E3960FACE39704C0220F331F441F551F8D
:101790000A94D2F721966CAC7DAC8EAC9FAC2197AD
:1017A0000E2E04C096948794779467940A94D2F787
:1017B00084017301E22AF32A042B152BE9AEFAAE59
:1017C0000BAF1CAF32018824992492018101207053
:1017D000307061960CAF1DAF2EAF3FAF6197C60161
:1017E000B501A40193010E94B3397B018C01C601AC
:1017F000B501A40193010E94B339C901DA016596CC
:101800008CAF9DAFAEAFBFAF6597BC01CD01619608
:101810002CAD3DAD4EAD5FAD61970E946D399B0122
:10182000AC018701FF24EE24A9ACBAACCBACDCAC94
:10183000C601AA27BB275C016D01AE28BF28C02ABC
:10184000D12AA216B306C406D50660F565966CAD1E
:101850007DAD8EAD9FAD65976150704080409040EA
:1018600065966CAF7DAF8EAF9FAF6597A20CB31C32
:10187000C41CD51CA214B304C404D50498F0A21649
:10188000B306C406D50670F46150704080409040A5
:1018900065966CAF7DAF8EAF9FAF6597A20CB31C02
:1018A000C41CD51CA21AB30AC40AD50AC601B501C4
:1018B000A40193010E94B3397B018C01C601B501DB
:1018C000A40193010E94B339C901DA013C014D0121
:1018D000C401B30161962CAD3DAD4EAD5FAD6197D6
:1018E0000E946D399B01AC018701FF24EE2489AD74
:1018F0009AADABADBCADA070B07057016801A82A1D
:10190000B92ACA2ADB2AA216B306C406D506E0F411
:1019100008946108710881089108A20CB31CC41CCA
:10192000D51CA214B304C404D50470F0A216B306E7
:10193000C406D50648F40894610871088108910826
:10194000A20CB31CC41CD51C21968CAD9DADAEADB4
:10195000BFAD2197E3960FACE39704C0880F991FA2
:10196000AA1FBB1F0A94D2F721968CAF9DAFAEAFD2
:10197000BFAF2197A21AB30AC40AD50A6596ECAC88
:10198000FDAC0EAD1FAD6597D70199278827682A52
:10199000792A8A2A9B2A82012227332769960CAF4B
:1019A0001DAF2EAF3FAF6997A201910140705070FB
:1019B0006D962CAF3DAF4EAF5FAF6D97C601B501D1
:1019C00069962CAD3DAD4EAD5FAD69970E94B339C0
:1019D0007B018C01C601B50169962CAD3DAD4EADC4
:1019E0005FAD69970E94B339C901DA01A1968CAF46
:1019F0009DAFAEAFBFAFA197BC01CD016D962CAD31
:101A00003DAD4EAD5FAD6D970E946D399B01AC0150
:101A10008701FF24EE242196ACACBDACCEACDFAC8C
:101A20002197C601AA27BB2757016801A82AB92A0E
:101A3000CA2ADB2AA216B306C406D50660F5A1960B
:101A40006CAD7DAD8EAD9FADA19761507040804073
:101A50009040A1966CAF7DAF8EAF9FAFA197A20CC7
:101A6000B31CC41CD51CA214B304C404D50498F040
:101A7000A216B306C406D50670F4615070408040CB
:101A80009040A1966CAF7DAF8EAF9FAFA197A20C97
:101A9000B31CC41CD51CA21AB30AC40AD50AC601B9
:101AA000B50169962CAD3DAD4EAD5FAD69970E9415
:101AB000B3397B018C01C601B50169962CAD3DADF2
:101AC0004EAD5FAD69970E94B339C901DA015C017F
:101AD0006D01C601B5016D962CAD3DAD4EAD5FAD4E
:101AE0006D970E946D399B01AC018701FF24EE24A4
:101AF00021968CAD9DADAEADBFAD2197A070B070FD
:101B0000E82AF92A0A2B1B2BE216F306040715070D
:101B1000C0F40894A108B108C108D108E20CF31C74
:101B2000041D151DE214F3040405150550F0E2161A
:101B3000F3060407150728F40894A108B108C108A2
:101B4000D108A196ECACFDAC0EAD1FADA197D701AD
:101B50009927882796018501082B192B2A2B3B2BC7
:101B600025960CAF1DAF2EAF3FAF259772C26E14F6
:101B70007F048006910608F45FC220E0E21620E0B0
:101B8000F20621E0020720E0120788F43FEFE31697
:101B9000F1040105110531F028F048E050E060E063
:101BA00070E017C040E050E060E070E012C040E03C
:101BB000E41640E0F40640E0040741E0140728F092
:101BC00048E150E060E070E004C040E150E060E0D7
:101BD00070E0D801C701042E04C0B695A79597956B
:101BE00087950A94D2F783509D4FDC012C9130E207
:101BF000A32EB12CC12CD12CD601C501841B950B71
:101C0000A60BB70B821B9109A109B1090097A10589
:101C1000B10599F4E614F7040805190508F4FEC1A6
:101C200021966CAC7DAC8EAC9FAC21976214730492
:101C30008404950408F0F2C1FFC1E2968FAFE297E9
:101C4000082E04C0EE0CFF1C001F111F0A94D2F7CF
:101C50006A2D681BD201C101062E04C0B695A79556
:101C6000979587950A94D2F75C016D01AE28BF283D
:101C7000C02AD12AADAABEAACFAAD8AE72016101EC
:101C8000E2960FACE29704C0CC0CDD1CEE1CFF1CEE
:101C90000A94D2F7C9AADAAAEBAAFCAA64015301F2
:101CA000062E04C0D694C794B794A7940A94D2F78A
:101CB000D401C301E2960FACE29704C0880F991FCC
:101CC000AA1FBB1F0A94D2F72196ECACFDAC0EAD57
:101CD0001FAD219704C016950795F794E7946A9570
:101CE000D2F737014801682A792A8A2A9B2A6DA6E9
:101CF0007EA68FA698AAEDA8FEA80FA918AD380158
:101D0000882499249801870120703070A5960CAF23
:101D10001DAF2EAF3FAFA597C601B501A40193013A
:101D20000E94B3397B018C01C601B501A401930166
:101D30000E94B339C901DA011C012D01C201B101B0
:101D4000A5962CAD3DAD4EAD5FADA5970E946D390A
:101D50009B01AC018701FF24EE24ADA4BEA4CFA457
:101D6000D8A8C601AA27BB2757016801A82AB92A03
:101D7000CA2ADB2AA216B306C406D50600F50894C3
:101D80002108310841085108EDA8FEA80FA918AD97
:101D9000AE0CBF1CC01ED11EAE14BF04C006D106BF
:101DA00070F0A216B306C406D50648F408942108BC
:101DB000310841085108AE0CBF1CC01ED11EA21A2A
:101DC000B30AC40AD50AC601B501A40193010E9451
:101DD000B3397B018C01C601B501A40193010E94B6
:101DE000B339C901DA013C014D01C401B301A59623
:101DF0002CAD3DAD4EAD5FADA5970E946D399B01F9
:101E0000AC018701FF24EE248DA59EA5AFA5B8A93E
:101E1000A070B07057016801A82AB92ACA2ADB2A23
:101E2000A216B306C406D50600F508946108710829
:101E3000810891086DA97EA98FA998ADA60EB71E3D
:101E4000C81ED91EA616B706C806D90670F0A21677
:101E5000B306C406D50648F40894610871088108E1
:101E60009108A60EB71EC81ED91ED601C501821B39
:101E7000930BA40BB50B89A79AA7ABA7BCA7D1015D
:101E80009927882764015301A82AB92ACA2ADB2A7C
:101E90002596ACAEBDAECEAEDFAE25978601750100
:101EA0002FEF3FEF40E050E0E222F322042315231E
:101EB000A60166277727AD964CAF5DAF6EAF7FAFBB
:101EC000AD97A9A8BAA8CBA8DCA86FEF7FEF80E0F8
:101ED00090E0A622B722C822D92289A99AA9ABA943
:101EE000BCA91D0144245524C801B701A6019501D0
:101EF0000E946D39A9966CAF7DAF8EAF9FAFA99749
:101F0000C801B701A20191010E946D393B014C014A
:101F1000AD966CAD7DAD8EAD9FADAD97A601950133
:101F20000E946D397B018C01AD966CAD7DAD8EAD9F
:101F30009FADAD97A20191010E946D395B016C01CB
:101F4000A8019701260D371D481D591DA9966CAC97
:101F50007DAC8EAC9FACA997C401AA27BB27280FE4
:101F6000391F4A1F5B1F2E153F054007510748F4D4
:101F7000E12CF12C61E0062F112DAE0CBF1CC01E10
:101F8000D11ECA01AA27BB27BC01CD016A0D7B1D4A
:101F90008C1D9D1D69A47AA48BA49CA4661677064B
:101FA0008806990650F1661577058805990509F0A8
:101FB0004DC0D90199278827A9962CAD3DAD4EADCE
:101FC0005FADA99740705070820F931FA41FB51F7B
:101FD00021962CAD3DAD4EAD5FAD2197E2960FAC95
:101FE000E29704C0220F331F441F551F0A94D2F7F3
:101FF000281739074A075B0748F525960CAD1DAD34
:102000002EAD3FAD25970150104020403040259621
:102010000CAF1DAF2EAF3FAF259718C066247724B5
:10202000430121E030E040E050E025962CAF3DAF89
:102030004EAF5FAF25970DC06624772443012596E8
:102040001CAE1DAE1EAE1FAE259703C066247724BE
:102050004301FE01B19688E0DF011D928A95E9F700
:102060002596ACACBDACCEACDFAC2597A9A2BAA28C
:10207000CBA2DCA26DA27EA28FA298A622962FAD43
:1020800022973AA14BA15CA1662D7EA1DFA098A565
:10209000E196ECACFDAC0EAD1FADE197E114F1049F
:1020A0000105110509F456C0219581E0121608F0CA
:1020B00080E03195E1E0131608F0E0E0932E981AE5
:1020C00081E0391508F080E0E82B4195F1E0141625
:1020D00008F0F0E0A42EAE1A81E04A1508F080E086
:1020E000F82B5195E1E0151608F0E0E0B52EBF1A87
:1020F00081E05B1508F080E0E82B6195F1E01616B1
:1021000008F0F0E0A62FAE1B81E06A1708F080E02F
:10211000F82B7195E1E0171608F0E0E0C72ECF1A12
:1021200081E07C1508F080E0E82B8D2D8195F1E0B1
:10213000181608F0F0E0D82EDE1AE1E08D1508F050
:10214000E0E0FE2B892F8195392DA5016A2F7C2D8A
:10215000982F9F1B8D2DCE58DF4FE2E10C940C3A47
:10216000FB01DC0104C08D910190801921F44150E4
:102170005040C8F7881B990B089581E08093C004F4
:10218000089581E08093ED04089581EC94E00E942D
:102190005A1C08956F927F929F92AF92BF92CF92F6
:1021A000DF92EF92FF920F931F93DF93CF93CDB700
:1021B000DEB76E970FB6F894DEBF0FBECDBF6C01D1
:1021C0005B01FC011082FB01108287E0682E712CFC
:1021D0006C0E7D1EC301BE016D5E7F4F0E94FE2707
:1021E000982E80FF3EC081E0F6018083CE010396E9
:1021F0000E94F11CEB80FC800D811E816F8178852F
:1022000089859A850E945638A80197010E940A394B
:102210000E9423386F83788789879A876B857C85AE
:102220008D859E850E945638A80197010E940A3923
:102230000E9423386B877C878D879E876F8578897E
:1022400089899A890E945638A80197010E940A3903
:102250000E9423386F87788B898B9A8BC3010E94E9
:10226000E42C91FE2FC081E0F5018083CE01019620
:102270000E941A1DE980FA8000E010E06B897C89D9
:102280008D899E89A80197010E946D396B8B7C8B8B
:102290008D8B9E8B6F89788D898D9A8D0E946D397B
:1022A0006F8B788F898F9A8F6B8D7C8D8D8D9E8DA6
:1022B0000E946D396B8F7C8F8D8F9E8FCE014396E0
:1022C0000E946530F6018081882321F0F50180812C
:1022D000811181E06E960FB6F894DEBF0FBECDBFC0
:1022E000CF91DF911F910F91FF90EF90DF90CF90F2
:1022F000BF90AF909F907F906F9008950F931F9322
:10230000DF93CF93CDB7DEB729970FB6F894DEBF32
:102310000FBECDBF81EC90E19F838E831986188616
:10232000CE0106960E94982A892B51F083E596E00B
:1023300060E071E00E943C3783E596E00E941D3525
:1023400088E70E94F41E88E70E94822084E690E0DD
:102350000E943521CE0102960E94DF1CCE01049618
:102360000E94731CCE0101960E94921C89E0EAEE45
:10237000F4E0DF011D928A95E9F783E08093EA0497
:1023800084E090E09093EF048093EE040E948F31FC
:102390008C01009789F083E596E061E171E00E948D
:1023A0003C3783E596E0B8014AE050E00E941D37D3
:1023B00083E596E00E941D3580E791E00E94462F5C
:1023C00084E690E00E94A12C29960FB6F894DEBF17
:1023D0000FBECDBFCF91DF911F910F910895CF9286
:1023E000DF92EF92FF920F931F93CF93DF936C01D5
:1023F000C0E0D0E07B010027F7FC0095102F11C052
:102400008DE061E00E945E33C801B7010E948B320B
:102410008DE060E00E945E33C801B7010E948B32FC
:102420002196CC15DD0564F3DF91CF911F910F91BB
:10243000FF90EF90DF90CF9008958091E70488237C
:10244000B1F50E947D322091E3043091E404409183
:10245000E5045091E604621B730B840B950B695ED7
:1024600073408040904018F181E08093E7048091B0
:10247000E1049091E204892B51F48091E8048823CF
:1024800031F488E090E09093E2048093E10480913D
:10249000E1049091E204892B51F48091E9048823AE
:1024A00031F489E090E09093E2048093E10480911C
:1024B000ED04882369F08091E804882349F483E5DA
:1024C00096E066E271E00E943F3781E08093E80485
:1024D0008091C004882369F08091E904882349F43D
:1024E00083E596E062E471E00E943F3781E08093EB
:1024F000E90464E670E080E090E00E948B32809115
:10250000E7048823B1F08091E1049091E204009700
:1025100029F48DE061E00E945E3304C06CE271E05A
:102520000E94EF1164EC79E080E090E00E948B3231
:10253000EACF0895EF92FF920F931F93DF93CF930B
:1025400000D0CDB7DEB782E160E00E941F3383E1A7
:1025500061E00E941F3300E010E083E161E00E942F
:102560005E3383E160E00E945E3383E161E00E94BC
:102570005E330F5F1F4F0436110579F782E161E08A
:102580000E945E3382E160E00E945E3383E596E064
:1025900040E051EE60E070E00E943C3483E596E05C
:1025A0000E946D358823D1F383E596E06FE571E0F5
:1025B0000E943F3783E596E00E941D3589E395E050
:1025C0000E942315449845988DE061E00E941F33D6
:1025D00083E090E06BE470E00E94EF1183E596E009
:1025E0006CE771E00E943F3700E0FF24EE2418E022
:1025F00089E395E0612F0E94491489E395E00E94E8
:102600000E15882381F51E3119F4EE24E39404C0DD
:10261000183611F4FF24F39483E596E064E971E041
:102620000E943C3783E596E0612F4AE050E00E942B
:10263000AD3683E596E064EA71E00E943C3783E5BD
:1026400096E0612F40E150E00E94AD3683E596E0D0
:1026500069EA71E00E943F370F5F61E070E080E05F
:1026600090E00E948B321F5F183711F683E596E0E9
:102670006BEA71E00E943C3783E596E0602F4AE008
:1026800050E00E94AD3683E596E062EB71E00E9477
:102690003F37FF2019F481E090E0C5C0EE2019F427
:1026A00082E090E0C0C064E670E080E090E00E94CC
:1026B0008B3283E596E06EEB71E00E943C370E941E
:1026C0007E11882369F083E596E06FEC71E00E944B
:1026D0003F3783E596E00E941D3583E090E0A3C07C
:1026E00083E596E066ED71E00E943F3783E596E072
:1026F0000E941D3562E370E080E090E00E948B3222
:10270000CE010196BE016E5F7F4F0E94CA1083E525
:1027100096E060EE71E00E943C378981882381F069
:1027200083E596E062EF71E00E943F3783E596E033
:1027300069EF71E00E943C378A81882351F430C0F0
:1027400083E596E06FEC71E00E943F3784E090E013
:102750006AC083E596E062EF71E00E943F3781EC4A
:1027600094E00E94CA1983E596E06CE072E00E9452
:102770003F3783E596E067E272E00E943C3783E5ED
:1027800096E00E941D356AE070E080E090E00E94D3
:102790008B3281EC94E00E941C19882351F43BC0D9
:1027A00083E596E06FEC71E00E943F3785E090E0B2
:1027B0003AC083E596E062EF71E00E943F3781EC1A
:1027C00094E00E94DE19182F83E596E069E372E039
:1027D0000E943C3783E596E0612F4AE050E00E947A
:1027E000BF3683E596E069E472E00E943F3783E5F7
:1027F00096E00E941D356AE070E080E090E00E9463
:102800008B3281EC94E0612F44E650E00E94FC1989
:10281000882351F10DC083E596E06FEC71E00E94D2
:102820003F3786E090E09093E2048093E10428C073
:1028300083E596E066E772E00E943F3781E06DEB4A
:1028400070E143E050E00E94B83181EC94E00E94D6
:1028500042190E947D326093E3047093E4048093F4
:10286000E5049093E6040CC087E090E09093E204C6
:102870008093E10483E596E06FEC71E00E943F37BE
:102880000F900F90CF91DF911F910F91FF90EF90DC
:10289000089581E080933805609315051092360500
:1028A0001092370508952091140530E080911305AA
:1028B000281B3109C9010895409113058091140521
:1028C000481718F02FEF3FEF0AC0E42FF0E0ED506B
:1028D000FB4F8081282F30E04F5F40931305C901E3
:1028E0000895E091130580911405E81718F0EFEFB3
:1028F000FFEF06C0F0E0ED50FB4F8081E82FF0E0E5
:10290000CF010895089510923C0510923B0588EE82
:1029100093E0A0E0B0E080933D0590933E05A09346
:102920003F05B093400586E294E090933A0580938A
:1029300039050895CF92DF92EF92FF920F931F9384
:10294000CF93DF937C016B018A0180913805882346
:10295000A1F0C0E0D0E00DC0D701ED91FC91D6010F
:10296000AC0FBD1F0190F081E02DC7016C9109955E
:102970002196C017D10780F304C0CB01642F0E94B9
:10298000CC15C801DF91CF911F910F91FF90EF906F
:10299000DF90CF900895DF93CF930F92CDB7DEB73E
:1029A000FC016983809138058823C9F0809137053F
:1029B000803238F081E090E09383828320E030E041
:1029C00015C080913605E82FF0E0EA5EFA4F998154
:1029D00090838F5F809336058093370505C0CE01C5
:1029E000019661E00E94CC1521E030E0C9010F9012
:1029F000CF91DF9108950F93062F8091150566E121
:102A000075E04091370521E00E9477151092360558
:102A100010923705109238050F91089561E00E94D9
:102A2000FB140895413208F040E2862F63EF74E012
:102A30000E942E151092130580931405089521E02D
:102A40000E94121508951092130510921405109209
:102A50003605109237050E9478170895382F4132B5
:102A600010F040E042C0809145058823E1F791E0F5
:102A700090934505209347058FEF8093B205109200
:102A80006D05415040936E054F5F909346058091D0
:102A90004605330F832B809346058091480581308E
:102AA00041F410924805809146058093BB0085EC67
:102AB00001C085EE8093BC00809145058130E1F333
:102AC00080916D05841710F440916D0520E030E091
:102AD0000AC0FB01E20FF31FD901A35BBA4F8C912F
:102AE00080832F5F3F4F2417A0F3842F08950F9307
:102AF0001F93582F122F413210F081E04AC080916D
:102B000045058823E1F782E080934505009347055A
:102B10008FEF8093B20510926D0540936E05ADE482
:102B2000B5E0FB0102C081918D938E2F861B841727
:102B3000D0F31092460580914605550F852B809362
:102B4000460580914805813041F4109248058091F6
:102B500046058093BB0085EC01C085EE8093BC00E8
:102B6000112321F0809145058230E1F38091B20577
:102B70008F3F11F480E00DC08091B205803211F4D6
:102B800082E007C08091B205803311F084E001C07B
:102B900083E01F910F910895482F613210F081E07A
:102BA000089580914505843011F082E00895609386
:102BB0009005AFE6B5E0842F9C01F90102C0819138
:102BC0008D938E2F841B8617D0F380E008951F927B
:102BD0000F920FB60F9211242F933F934F935F9351
:102BE0006F937F938F939F93AF93BF93EF93FF93D5
:102BF0008091B90090E0887F90708036910509F44B
:102C0000F2C081369105CCF58832910509F47BC07C
:102C100089329105B4F48031910509F46FC0813196
:102C200091053CF4009709F447C1089709F04FC19A
:102C300065C08831910509F466C0809709F047C1E5
:102C400082C08034910509F4A4C08134910544F414
:102C50008033910509F482C0C89709F038C189C052
:102C60008035910509F489C08835910509F496C02D
:102C70008834910509F02BC1AEC08839910509F45B
:102C800013C189399105ECF48837910509F4ABC07B
:102C9000893791054CF48836910509F4A4C0803732
:102CA000910509F014C19FC08838910509F4FCC052
:102CB0008039910509F49DC08038910509F007C15C
:102CC00098C0803B910509F4C6C0813B91054CF446
:102CD000803A910509F49FC0883A910509F0F7C040
:102CE000BAC0803C910509F4E3C0883C910509F421
:102CF000DFC0883B910509F0EAC0C2C0809146055B
:102D00008093BB00CFC090916D0580916E059817A0
:102D100068F490916D05E92FF0E0E35BFA4F808154
:102D20008093BB009F5F90936D05BCC08091470569
:102D3000882309F44BC085ED8093BC008091BC00D2
:102D400084FDFCCFC2C080E28093B20585ED809304
:102D5000BC008091BC0084FDFCCFB7C080E38093B1
:102D6000B20585ED8093BC008091BC0084FDFCCF52
:102D7000ACC088E38093B2059BC080916D059091B3
:102D8000BB00E82FF0E0E35BFA4F90838F5F809306
:102D90006D0590916D0580916E0582C080916D05E5
:102DA0009091BB00E82FF0E0E35BFA4F90838F5FD8
:102DB00080936D0580914705882341F085ED8093D0
:102DC000BC008091BC0084FDFCCF7FC081E080937B
:102DD000480584EA6EC085ED8093BC008091BC00FC
:102DE00084FDFCCF72C083E0809345051092B1054D
:102DF00059C08091B105803208F056C08091B1056C
:102E00009091BB00E82FF0E0EF56FA4F90838F5F70
:102E10008093B10547C08091B105803230F4E091D4
:102E2000B105F0E0EF56FA4F108285ED8093BC00BB
:102E30008091BC0084FDFCCF109245056091B105E6
:102E4000E0914B05F0914C0581E995E070E0099522
:102E50001092B1052DC084E08093450510928F0536
:102E600010929005E0914905F0914A0509958091ED
:102E70009005882329F481E08093900510926F05D6
:102E800090918F05E92FF0E0E159FA4F808180930E
:102E9000BB009F5F90938F0590918F058091900567
:102EA000981710F485EC01C085E88093BC000FC032
:102EB00085EC8093BC0009C01092B20585ED80932B
:102EC000BC008091BC0084FDFCCF10924505FF91B1
:102ED000EF91BF91AF919F918F917F916F915F9192
:102EE0004F913F912F910F900FBE0F901F9018950B
:102EF0001092450581E0809347051092480582E1D4
:102F000061E00E945E3383E161E00E945E33E9EBA1
:102F1000F0E080818E7F808380818D7F808388E454
:102F20008093B80085E48093BC000895EF92FF92EF
:102F30000F931F93CF93DF93582F162FE42E022F5A
:102F4000F32E89E395E0652F0E94491489E395E00B
:102F5000612F0E94CB14202F3F2DC901EC0110E0FE
:102F600006C089E395E069910E94CB141F5F1E158E
:102F7000C0F389E395E00E940E1590E0882309F4E0
:102F800091E0892FDF91CF911F910F91FF90EF90EA
:102F90000895DF93CF930F92CDB7DEB7498341E019
:102FA0009E012F5F3F4F0E9496170F90CF91DF91A8
:102FB00008952F923F924F925F926F927F928F92DD
:102FC0009F92AF92BF92CF92DF92EF92FF920F93B8
:102FD0001F93DF93CF9300D000D00F92CDB7DEB711
:102FE000882E6983942E3B832A830E947D325B0165
:102FF0006C01FF24EE24292C332428016624772435
:103000004BC089E395E0682D0E94491489E395E05F
:1030100069810E94CB1489E395E00E940E1589E333
:1030200095E0682D0E944914A1014E1951094132C1
:10303000510514F040E250E089E395E0682D0E94CC
:103040001F152F2D332727FD30958A819B81280F4F
:10305000391F3D832C8389E395E00E945314892B0B
:1030600009F452C00115110561F00E947D326A1900
:103070007B098C099D09641575058605970508F07F
:1030800043C089E395E00E945C14EC81FD8181934B
:10309000FD83EC83F394DFCFE91408F4B2CF01157C
:1030A0001105C9F00E947D326A197B098C099D09BE
:1030B000980140E050E0621773078407950758F0C5
:1030C0002F2D332727FD3095892D90E028173907BC
:1030D00014F4FF24FA948F2D0F900F900F900F90FF
:1030E0000F90CF91DF911F910F91FF90EF90DF90A4
:1030F000CF90BF90AF909F908F907F906F905F9098
:103100004F903F902F90089589E395E00E940E150F
:10311000892DF0E2F91508F480E2E80EBDCF0F9397
:103120001F93FA01890141E09F010E94D9171F9165
:103130000F910895CF92DF92EF92FF920F931F931A
:10314000DF93CF930F92CDB7DEB7C42ED22E970167
:10315000AE014F5F5F4F0E948F18682F882309F1DF
:103160008D2D90E04C2D50E04F5F5F4F481B590B69
:1031700021E030E002C0220F331FDA94E2F7215041
:103180003040042E02C0220F331F0A94E2F78981D7
:10319000822390E002C0959587954A95E2F7F80161
:1031A0008083862F0F90CF91DF911F910F91FF9019
:1031B000EF90DF90CF900895FC018EE18083089519
:1031C0000F931F938C01AC014F5F5F4F2091FD0364
:1031D0003091FE03FC0180816CE00E948F18F801A1
:1031E00081811F910F9108950F931F938C01AC0162
:1031F0004F5F5F4F2091FD033091FE03FC01808102
:103200006BE00E948F18F80181811F910F91089542
:103210000F931F938C01AC014F5F5F4F2091FD0313
:103220003091FE03FC0180816AE00E948F18F80152
:1032300081811F910F9108950F931F93CF93DF9377
:10324000EC019C012F5F3F4F0091FD031091FE03A5
:1032500088816AE043E00E94D917833061F4898154
:10326000883449F48A81843331F440E08B8183339C
:1032700019F441E001C040E0842FDF91CF911F910C
:103280000F9108950F931F93CF93DF93EC019C014F
:103290002F5F3F4F0091FD031091FE03888163E093
:1032A00046E00E94D9178F81813029F4888162E03D
:1032B00041E00E94C917998180E02A8130E0282BE3
:1032C000392BC901DF91CF911F910F910895AF92D2
:1032D000BF92CF92DF92EF92FF920F931F93CF9303
:1032E000DF93EC017B016A0159019C012F5F3F4F85
:1032F0000091FD031091FE03888163E046E00E9487
:10330000D9178F81813029F4888162E041E00E94E1
:10331000C917998180E02A8130E0822B932BF70135
:10332000918380839D8180E02E8130E0822B932BDE
:10333000F601918380839B8180E02C8130E0822B99
:10334000932BF50191838083DF91CF911F910F9192
:10335000FF90EF90DF90CF90BF90AF900895FF92D5
:103360000F931F938C01F62EFC01808162E0478150
:103370000E94C917F801F7821F910F91FF900895DD
:10338000FC01462F4295440F407E808161E00E94FF
:10339000C91708950F931F938C01FC01808160E091
:1033A00040E70E94C917C80161E00E94C019C80126
:1033B00061E00E94AF191F910F910895CF92DF92A3
:1033C000EF92FF920F931F936C018C010F5F1F4FC1
:1033D000E090FD03F090FE03FC01808161E047E096
:1033E00023E00E949A18F60181811F910F91FF90AE
:1033F000EF90DF90CF9008952F923F924F925F927F
:103400006F927F928F929F92AF92BF92CF92DF92F4
:10341000EF92FF920F931F93DF93CF93CDB7DEB759
:10342000A3970FB6F894DEBF0FBECDBF5C016B8BC8
:103430005D8B4C8B683008F01CC2452B09F419C217
:103440001C010E940819182FC5010E94F418082FAA
:10345000C5010E94E018183409F006C2043309F0CF
:1034600003C2833309F000C2D5018C9160E041E1D1
:103470000E94C917C5016B890E94C019C50161E08E
:103480000E94AF198E010D5F1F4F25E0E22EF12C37
:10349000EC0EFD1EC5016E010894C11CD11CB601C5
:1034A000A80197010E946719442455241B861C8695
:1034B0001D861E861F82188619861A866624772422
:1034C00043010A8F1B8FE8A2FAA2CBA2CD2C5FC0CA
:1034D000C10161E00E94AF19C1016BA17C2D4A8D31
:1034E0005B8D28A13AA10E94671969817A81CB017D
:1034F000AA2797FDA095BA2F680E791E8A1E9B1EDB
:103500004B815C817A010027F7FC0095102F8F8199
:103510009885A985BA858E0D9F1DA01FB11F8F8329
:103520009887A987BA872D813E8179010027F7FC0A
:103530000095102F8B859C85AD85BE858E0D9F1DBA
:10354000A01FB11F8B879C87AD87BE87C90142171B
:1035500053070CF4CA016817790724F46150704FBF
:103560009CF40AC04217530724F44150504F64F4AE
:1035700003C02150304F44F483E596E06EE772E0DB
:103580000E943F37CC240BC00894411C511CEC898D
:10359000FD894E165F0608F49BCFCC24C394D50159
:1035A0008C9160E042E10E94C91719A218A295E02F
:1035B000492E512C4C0E5D1E62C0C10161E00E947B
:1035C000AF19C101BE016F5F7F4FAE014D5F5F4F0D
:1035D00092010E94671969817A81CB01AA2797FD20
:1035E000A095BA2F681A790A8A0A9B0A4B815C81D6
:1035F0007A010027F7FC0095102F8F819885A98507
:10360000BA858E199F09A00BB10B8F839887A98764
:10361000BA872D813E8179010027F7FC0095102F94
:103620008B859C85AD85BE858E199F09A00BB10B3E
:103630008B879C87AD87BE87C901421753070CF45F
:10364000CA016817790724F46150704F9CF40AC0CE
:103650004217530724F44150504F64F403C02150E3
:10366000304F44F483E596E06EE772E00E943F3706
:10367000CC240DC0E8A1F9A13196F9A3E8A3E8A0F4
:10368000F9A00C891D89E016F10608F496CF1B8974
:10369000E12FF0E0EE0FFF1FEE5CFB4F0190F08199
:1036A000E02DCC2009F4D2C0BF01882777FD80959A
:1036B000982F0E9456381B012C014C895D899A0174
:1036C00040E050E02E8B3F8B488F598FCA01B901E3
:1036D0000E9454386F87788B898B9A8BC201B10115
:1036E00028EF31E84FE15FE30E940A399B01AC010A
:1036F0000E9453372F85388949895A890E940A398F
:103700000E9423387B018C0166167706880699068D
:103710000CF49CC0C201B1012BEC37EB4CEB5FE326
:103720000E940A399B01AC010E9453372F853889CA
:1037300049895A890E940A390E94233866157705FB
:10374000880599050CF482C02F81388549855A85F2
:103750002E153F05400751070CF478C06217730718
:10376000840795070CF472C02B853C854D855E85DA
:103770002E153F05400751070CF468C06217730708
:10378000840795070CF462C0C201B10121EE3AE74B
:1037900044E150E40E940A397B018C01C401B30169
:1037A0002E893F89488D598D0E94D539CA01B901AA
:1037B0000E9456389B01AC01C801B7010E94BB377B
:1037C000D50118966D937D938D939C931B976F8174
:1037D000788589859A852E893F89488D598D0E94E3
:1037E000D539CA01B9010E9456389B01AC01C80104
:1037F000B7010E94BB37F501648775878687978775
:10380000C201B10121E73DE34AE050E40E940A39D8
:103810007B018C016B857C858D859E852E893F89FA
:10382000488D598D0E94D539CA01B9010E94563878
:103830009B01AC01C801B7010E94BB37D50150966E
:103840006D937D938D939C93539707C083E596E08A
:103850006BEA72E00E943F37CC24F501808160E082
:1038600040E10E94C9170CC083E596E06BEC72E062
:1038700004C083E596E065EE72E00E943F37CC24F9
:103880008C2DA3960FB6F894DEBF0FBECDBFCF919F
:10389000DF911F910F91FF90EF90DF90CF90BF903D
:1038A000AF909F908F907F906F905F904F903F90E0
:1038B0002F9008950F931F938C010E94DC1880E0D5
:1038C00090E0A0E8BFE3F80180879187A287B387E3
:1038D00084879587A687B787808B918BA28BB38BC4
:1038E0001F910F910895FC0180910304813051F0E4
:1038F000813028F0823059F0833079F40BC08AEFA0
:1039000090E002C084EF91E09183808308C088EE4C
:1039100093E0FACF80ED97E0F7CF1182108280E03C
:1039200090E00895FC0180910404813059F08130C9
:1039300038F0823049F0833049F02FEF3FEF11C06B
:1039400082E005C084E003C088E001C080E180839C
:1039500080910D04882319F08081880F808320E0F6
:1039600030E0C9010895FC01809106048330B1F074
:10397000843028F4813051F08230E1F40AC085307F
:1039800099F0853070F08630A9F411C08CEB90E08E
:1039900002C082E690E0918380830EC08AE290E0CC
:1039A000FACF84E190E0F7CF8AE090E0F4CF85E0B1
:1039B00090E0F1CF1182108280E090E00895FC0148
:1039C00080911C04882319F02FEF3FEF08C08091ED
:1039D0000804909109049183808320E030E0C901BC
:1039E0000895FC0180910304813071F0813038F03A
:1039F000823079F0833091F02FEF3FEF19C080E0F3
:103A000090E0A3E0B3E40EC080E090E0A3E8B2E46D
:103A100009C083E393E3A3E0B2E404C083E393E348
:103A2000A3E8B1E480839183A283B38320E030E0F4
:103A3000C9010895FC0180910404813061F0813056
:103A400038F0823059F0833061F02FEF3FEF19C02A
:103A500080E090E408C08CE99FE105C080E090E13F
:103A600002C080E098E09183808380910D048823D8
:103A700031F080819181969587959183808320E0B4
:103A800030E0C9010895DF93CF930F92CDB7DEB731
:103A9000982F80911C04882321F0992379F082E0EB
:103AA0000BC080910504882319F1992339F0809186
:103AB0000B048823D1F481E0898301C01982E0914D
:103AC0000104F0910204A091FF03B09100048081F1
:103AD00051966C9141E09E012F5F3F4F0E94AD31A6
:103AE000892B31F4898180930B0420E030E002C0FF
:103AF0002FEF3FEFC9010F90CF91DF910895EF9223
:103B0000FF920F931F93DF93CF9300D0CDB7DEB713
:103B1000FC018B017A0141155105B1F18091050439
:103B2000882391F1A0910104B09102049B012E0F12
:103B3000311D18968D919C9119978217930720F14A
:103B4000F983EA83E091FF03F09100048C91638D87
:103B500042E09E012F5F3F4F0E94AD31892BA1F4BF
:103B6000E0910104F0910204A091FF03B0910004E0
:103B7000808158966C91402F97010E94AD31892B1E
:103B800019F420E030E002C02FEF3FEFC9010F90A1
:103B90000F90CF91DF911F910F91FF90EF900895BB
:103BA0001F93DF93CF930F92CDB7DEB7182F80917D
:103BB0001B04811761F1112319F080E3898301C08F
:103BC000198280910C04882319F08981826089838D
:103BD00080911A04882319F0898180688983E09193
:103BE0000104F0910204A091FF03B09100048081D0
:103BF00057966C9141E09E012F5F3F4F0E94AD317F
:103C0000892B19F02FEF3FEF04C010931B0420E025
:103C100030E0C9010F90CF91DF911F910895DF939C
:103C2000CF930F92CDB7DEB79C0180910504882316
:103C3000C9F12C3B310510F081E015C02236310569
:103C400010F082E010C02A32310510F083E00BC082
:103C50002431310510F084E006C02A30310510F01F
:103C600085E001C086E089839091060489819817D8
:103C7000B1F0E0910104F0910204A091FF03B09132
:103C80000004808112966C9141E09E012F5F3F4FAE
:103C90000E94AD31892B31F489818093060420E0A4
:103CA00030E002C02FEF3FEFC9010F90CF91DF91BD
:103CB0000895DF93CF930F92CDB7DEB7982F809101
:103CC00005048823C1F1943061F0953018F49230E6
:103CD00091F505C0983039F0903169F506C0198228
:103CE00006C088E003C080E101C088E18983898142
:103CF000869586958695909104049817C9F0E09171
:103D00000104F0910204A091FF03B09100048081AE
:103D100017966C9141E09E012F5F3F4F0E94AD319D
:103D2000892B49F48981869586958695809304042C
:103D300020E030E002C02FEF3FEFC9010F90CF919C
:103D4000DF910895DF93CF930F92CDB7DEB79C013B
:103D500080910504882309F440C081E0243F38079E
:103D600091F081E0253F380720F42A3F3105A9F57D
:103D700008C083E0283E380741F0205D374069F5F0
:103D800006C0198206C088E003C080E101C088E156
:103D900089838981869586958695909103049817E5
:103DA000C9F0E0910104F0910204A091FF03B091E9
:103DB0000004808116966C9141E09E012F5F3F4F79
:103DC0000E94AD31892B49F4898186958695869527
:103DD0008093030420E030E002C02FEF3FEFC901E1
:103DE0000F90CF91DF910895FF920F931F93DF9370
:103DF000CF930F92CDB7DEB7F82E082F10E0C80191
:103E000080779070892B11F081E005C0FF2011F0C0
:103E1000198202C080E48983E0910104F0910204D8
:103E2000A091FF03B0910004808155966C9141E010
:103E30009E012F5F3F4F0E94AD31892B59F589813B
:103E40008F7B80930704198206FD02C084E089837A
:103E500005FD03C089818260898304FD03C08981D7
:103E60008160898303FD03C0898188638983E09130
:103E70000104F0910204A091FF03B091000480813D
:103E800056966C9141E09E012F5F3F4F0E94AD31ED
:103E9000892B29F0109205042FEF3FEF14C0FF206B
:103EA00031F088E0F81619F080E00E94D01DF09201
:103EB000050410920E0462E370E080E090E00E943E
:103EC0008B3220E030E0C9010F90CF91DF911F913C
:103ED0000F91FF9008950F931F93DF93CF930F924D
:103EE000CDB7DEB780910504882309F4FFC019829D
:103EF000E0910104F0910204A091FF03B09100044D
:103F0000808151966C9141E08E010F5F1F4F9801A7
:103F10000E94AD31892B09F0E9C0E0910104F091D4
:103F20000204A091FF03B0910004808115966C916A
:103F300041E098010E94AD31892B09F0D7C0E09192
:103F40000104F0910204A091FF03B091000480816C
:103F500014966C9141E098010E94AD31892B09F0D3
:103F6000C5C080911C04E0910104F0910204A0916D
:103F7000FF03B0910004882309F45AC08CE08983C0
:103F8000808114966C9141E098010E94AD31892B9B
:103F900009F0ACC062E370E080E090E00E948B32F8
:103FA00080EC89838091050480FF02C080EE8983C4
:103FB000E0910104F0910204A091FF03B09100048C
:103FC000808114966C9141E09E012F5F3F4F0E94CB
:103FD000AD31892B09F08AC080910B04882319F038
:103FE00082E0898301C01982E0910104F09102040A
:103FF000A091FF03B0910004808151966C9141E043
:104000008E010F5F1F4F98010E94AD31892B09F07F
:104010006DC01982E0910104F0910204A091FF03A8
:10402000B0910004808115966C9141E098015AC0CE
:1040300084E08983808114966C9141E098010E940C
:10404000AD31892B09F052C080910C04882321F4F2
:104050008091050480FD02C080E401C080E6898370
:10406000E0910104F0910204A091FF03B0910004DB
:10407000808114966C9141E09E012F5F3F4F0E941A
:10408000AD31892B99F562E370E080E090E00E9409
:104090008B3280910B04882319F081E0898301C061
:1040A0001982E0910104F0910204A091FF03B09104
:1040B0000004808151966C9141E09E012F5F3F4F3B
:1040C0000E94AD31892B91F4E0910104F09102043A
:1040D000A091FF03B0910004808115966C9141E09E
:1040E0002AE034E00E94AD31892B19F02FEF3FEF29
:1040F00002C020E030E0C9010F90CF91DF911F9105
:104100000F9108950F931F93CF93DF93982F809172
:104110001C04882319F0C0E0D0E02AC08091050477
:10412000882321F1192F1E7F00910A048123809397
:104130000A04811719F4C0E0D0E002C0CFEFDFEF2E
:10414000112321F480910E04882331F081E00E9434
:10415000431D112369F004C080E00E94431D08C084
:104160000E946B1F892B21F000930A04CFEFDFEF31
:10417000CE01DF91CF911F910F9108951F93DF938F
:10418000CF9300D0CDB7DEB7182F893208F064C0C6
:104190008823E9F480E00E94D01D198287E08A8399
:1041A000E0910104F0910204A091FF03B09100049A
:1041B000808155966C9142E09E012F5F3F4F0E9497
:1041C000AD31892B09F048C010920E0442C081E045
:1041D0000E94D01D80E28983113011F41A8204C03C
:1041E000163028F481E08A8385E090E00BC0153119
:1041F00028F482E08A838AE090E004C083E08A8326
:1042000084E190E00E940F1E8A818295880F880FBA
:10421000807C87608A83E0910104F0910204A09180
:10422000FF03B0910004808155966C9142E09E019D
:104230002F5F3F4F0E94AD31892B71F488E080934E
:1042400005041092070481E080930E0480E00E9430
:10425000822020E030E002C02FEF3FEFC9010F9035
:104260000F90CF91DF911F9108950F931F93DF93CC
:10427000CF930F92CDB7DEB78C01809105048823D0
:1042800009F44EC080911C04882309F049C0809134
:104290000E04882359F0C8010197889720F4802FD5
:1042A0000E94BE203AC080E00E94BE20043011056A
:1042B00018F464E070E007C0B80183E0093E180715
:1042C00010F068EE73E088EE93E00E948C39615044
:1042D0006983E0910104F0910204A091FF03B09181
:1042E0000004808111966C9141E09E012F5F3F4F49
:1042F0000E94AD31892BA1F4698170E06F5F7F4F1F
:1043000088EE93E00E94A039CB017093090460937A
:104310000804969587950E940F1E20E030E002C0A9
:104320002FEF3FEFC9010F90CF91DF911F910F91B8
:104330000895EF92FF920F931F93DF93CF9300D0D6
:10434000CDB7DEB7FC018B017A0141155105B1F102
:1043500080910504882391F1A0910104B091020499
:104360009B012E0F311D18968D919C9119978217E4
:10437000930720F1F983EA83E091FF03F0910004B1
:104380008C91638D42E09E012F5F3F4F0E94AD31C3
:10439000892BA1F4E0910104F0910204A091FF03A4
:1043A000B0910004808158966C91402F97010E9433
:1043B0009A31892B19F420E030E002C02FEF3FEF53
:1043C000C9010F900F90CF91DF911F910F91FF9036
:1043D000EF9008952F923F924F925F926F927F924B
:1043E0008F929F92AF92BF92CF92DF92EF92FF9205
:1043F0000F931F93DF93CF93CDB7DEB7A2970FB67E
:10440000F894DEBF0FBECDBF4C015B011A0129013C
:1044100080911D04882319F02DEF3FEF6EC06115C8
:10442000710519F42CEF3FEF68C0EE24FF2453E12F
:10443000C52ED12CCC0EDD1E43E0642E712C6C0EEB
:104440007D1E34C084010E191F090131110510F0C1
:1044500000E110E095012E0D3F1D80E090E009C0C5
:10446000F901E80FF91FE491D601A80FB91FEC93E9
:10447000019680179107A0F3C701B801A6010E9419
:104480007F1D892BC1F5C701B801A3010E949921A5
:10449000892B89F5C601B301A8010E94B0100097CD
:1044A00019F02EEF3FEF29C0E00EF11EE814F904D9
:1044B00048F239822A82E0910104F0910204A0912D
:1044C000FF03B091000480815D966C9142E09E01F3
:1044D0002F5F3F4F0E94AD31892B19F02BEF3FEF3B
:1044E0000CC081E080931D0450921F0440921E0472
:1044F00020E030E002C02FEF3FEFC901A2960FB6D7
:10450000F894DEBF0FBECDBFCF91DF911F910F9109
:10451000FF90EF90DF90CF90BF90AF909F908F90E3
:104520007F906F905F904F903F902F9008952F92C3
:104530003F924F925F926F927F928F929F92AF9233
:10454000BF92CF92DF92EF92FF920F931F93DF9370
:10455000CF93CDB7DEB7A8970FB6F894DEBF0FBEE6
:10456000CDBF1C0178A36F8FF42E81E089831A825E
:10457000E0910104F0910204A091FF03B0910004C6
:10458000808155966C9142E08E010F5F1F4F98011C
:104590000E94AD31892B09F021C468EC70E080E005
:1045A00090E00E948B321982E0910104F0910204A4
:1045B000A091FF03B0910004808151966C9141E07D
:1045C00098010E94AD31892B09F008C4E0910104E3
:1045D000F0910204A091FF03B09100048081159630
:1045E0006C9141E098010E94AD31892B09F0F6C32E
:1045F000E0910104F0910204A091FF03B091000446
:10460000808155966C9141E098010E94AD31892BD3
:1046100009F0E4C3E0910104F0910204A091FF03CA
:10462000B091000480815A966C9141E098010E94FB
:10463000AD31892B09F0D2C3E0910104F09102045D
:10464000A091FF03B0910004808114966C9141E029
:1046500098010E94AD31892B09F0C0C38CE0898399
:10466000E0910104F0910204A091FF03B0910004D5
:10467000808114966C9141E098010E94AD31892BA4
:1046800009F0ACC36FE070E080E090E00E948B32F4
:10469000E0912004F091210481858983E091010457
:1046A000F0910204A091FF03B09100048081129662
:1046B0006C9141E098010E94AD31892B09F08EC3C5
:1046C000E0912004F091210480858983E091010428
:1046D000F0910204A091FF03B09100048081119633
:1046E0006C9141E098010E94AD31892B09F076C3AD
:1046F000E0912004F0912104FF2019F08285806E62
:1047000001C082858983E0910104F0910204A091A7
:10471000FF03B0910004808116966C9141E09E01E8
:104720002F5F3F4F0E94AD31892B09F057C3FF2007
:1047300039F0E0912004F09121048385806E01C05E
:1047400088E18983E0910104F0910204A091FF03C4
:10475000B0910004808117966C9141E09E012F5F1B
:104760003F4F0E94AD31892B09F038C3FF2031F053
:1047700068EC70E080E090E00E948B3280E48983F6
:10478000E0910104F0910204A091FF03B0910004B4
:10479000808114966C9141E08E010F5F1F4F98014C
:1047A0000E94AD31892B09F019C388E78983E09114
:1047B0000104F0910204A091FF03B09100048081F4
:1047C00015966C9141E098010E94AD31892B09F05A
:1047D00005C362E370E080E090E00E948B321982B2
:1047E000E0910104F0910204A091FF03B091000454
:1047F000808115966C9141E098010E94AD31892B22
:1048000009F0ECC2E0910104F0910204A091FF03D1
:10481000B091000480811C966C9142E098010E9446
:104820009A31892B09F0DAC2998180E02A8130E03F
:10483000822B932B6CE070E00E948C396E87910183
:104840002C5F3F4F3E8F2D8FA101485F5F4F5C8FE4
:104850004B8FF10110861186128613861482158201
:104860001682178210821182128213822F8D38A134
:104870002C5F3F4F3A8F298F4F8D58A1485F5F4F74
:10488000588F4F8BEF8DF8A11086118612861386F4
:10489000148215821682178210821182128213826C
:1048A0001D86C8010FA398A7AEC0E0910104F09146
:1048B0000204A091FF03B091000480811D966C91C9
:1048C0004CE02FA138A50E949A31892B09F086C2AD
:1048D000FB81FAA319A2AC80BB2429A13AA1A22A88
:1048E000B32A3D813CA31BA2EE80FF244BA15CA117
:1048F000E42AF52A59815EA31DA28A8190E06DA168
:104900007EA1862B972BAA2797FDA095BA2FEF8D16
:10491000F8A12081318142815381280F391F4A1F1C
:104920005B1F2083318342835383CC24B7FCC09424
:10493000DC2CE98DFA8D80819181A281B3818A0D71
:104940009B1DAC1DBD1D80839183A283B383002773
:10495000F7FC0095102FEF89F88D80819181A2815D
:10496000B3818E0D9F1DA01FB11F80839183A283F1
:10497000B38359844424AA84BB24A428B5287B8407
:104980006624EC84FF24E628F7289F808824888505
:1049900090E088299929AA2797FDA095BA2FF101BF
:1049A0002081318142815381280F391F4A1F5B1FAB
:1049B0002083318342835383CC24B7FCC094DC2C06
:1049C000ED8DFE8D80819181A281B3818A0D9B1D29
:1049D000AC1DBD1D80839183A283B3830027F7FCA8
:1049E0000095102FEB8DFC8D80819181A281B38188
:1049F0008E0D9F1DA01FB11F80839183A283B3835F
:104A0000FD85FF5FFD872D853E85231708F44DCF7B
:104A1000232F30E040E050E060E070E080E090E084
:104A20002F87388B498B5A8B6B8B7C8B8D8B9E8B16
:104A3000F10180819181A281B3817C018D01110FEF
:104A4000EE08FE2C87019C01AD016E2D7E2D8E2D72
:104A50009E2D00E10E948407A3E8AA2EBB24CC244B
:104A6000DD24EE24FF2400E010E00E948808AF84DB
:104A70000E948808C901BA01F10120839183428311
:104A8000738384819581A681B7817C018D01110F8B
:104A9000EE08FE2C87019C01AD016E2D7E2D8E2D22
:104AA0009E2D00E10E948407E3E8AE2EEE24FF2451
:104AB00000E010E00E948808AF840E948808C901C5
:104AC000BA01F1012483958346837783808591859C
:104AD000A285B3857C018D01110FEE08FE2C8701A4
:104AE0009C01AD016E2D7E2D8E2D9E2D00E10E942C
:104AF0008407F3E8AF2EEE24FF2400E010E00E94CC
:104B00008808AF840E948808C901BA01F101208792
:104B1000918742877387EF8DF8A180819181A2816F
:104B2000B3817C018D01110FEE08FE2C87019C01E1
:104B3000AD016E2D7E2D8E2D9E2D00E10E948407ED
:104B4000B42F162F072FF82EE92EA22FF32FE52FC3
:104B5000612F702F8F2D9E2DEE20ACF5D22EDA9482
:104B6000F1E0D21608F0F0E0E32FE95FA1E0E317EF
:104B700008F0A0E03F2F3E0FF1E03E1708F0F0E014
:104B80004A2F4F2B4B0FE1E04B1708F0E0E0BE2F10
:104B9000B50FE1E0B51708F0E0E06E2F610FE1E03E
:104BA000611708F0E0E07E2F700FE1E0701708F069
:104BB000E0E08E2F8F0D91E08F1508F090E0AD2D85
:104BC000F32FEB2F9E0D2A2F3F2F5E2F0BE00E941D
:104BD0000308AF84BB24CC24DD24EE24FF2400E0B2
:104BE00010E00E948808C901BA01EF8DF8A1208366
:104BF00091834283738384819581A681B7817C01EF
:104C00008D01110FEE08FE2C87019C01AD016E2D68
:104C10007E2D8E2D9E2D00E10E948407B42F162F2D
:104C2000072FF82EE92EA22FF32FE52F612F702FDB
:104C30008F2D9E2DEE20ACF5D22EDA94F1E0D21617
:104C400008F0F0E0E32FE95FA1E0E31708F0A0E04F
:104C50003F2F3E0FF1E03E1708F0F0E04A2F4F2BB8
:104C60004B0FE1E04B1708F0E0E0BE2FB50FE1E09D
:104C7000B51708F0E0E06E2F610FE1E0611708F072
:104C8000E0E07E2F700FE1E0701708F0E0E08E2F7B
:104C90008F0D91E08F1508F090E0AD2DF32FEB2FE5
:104CA0009E0D2A2F3F2F5E2F0BE00E940308AF843A
:104CB000BB24CC24DD24EE24FF2400E010E00E947D
:104CC0008808C901BA01EF8DF8A124839583468332
:104CD000778380859185A285B3857C018D01110F35
:104CE000EE08FE2C87019C01AD016E2D7E2D8E2DD0
:104CF0009E2D00E10E948407B42F162F072FF82E57
:104D0000E92EA22FF32FE52F612F702F8F2D9E2DCF
:104D1000EE20ACF5D22EDA94F1E0D21608F0F0E0F5
:104D2000E32FE95FA1E0E31708F0A0E03F2F3E0F7B
:104D3000F1E03E1708F0F0E04A2F4F2B4B0FE1E077
:104D40004B1708F0E0E0BE2FB50FE1E0B51708F013
:104D5000E0E06E2F610FE1E0611708F0E0E07E2FE8
:104D6000700FE1E0701708F0E0E08E2F8F0D91E0FA
:104D70008F1508F090E0AD2DF32FEB2F9E0D2A2F0D
:104D80003F2F5E2F0BE00E940308AF84BB24CC248E
:104D9000DD24EE24FF2400E010E00E948808C90111
:104DA000DA01EF8DF8A180879187A287B387181663
:104DB00019061A061B062CF480509040A140B04002
:104DC00006C080509040AF4FBF4FEF8DF8A1808755
:104DD0009187A287B38720E030E002C02FEF3FEF3A
:104DE000C901A8960FB6F894DEBF0FBECDBFCF9114
:104DF000DF911F910F91FF90EF90DF90CF90BF90C8
:104E0000AF909F908F907F906F905F904F903F906A
:104E10002F900895FF920F931F93DF93CF930F92DC
:104E2000CDB7DEB7F82E80910C048F1509F48AC037
:104E3000E0910104F0910204A091FF03B0910004FD
:104E40008E010F5F1F4FFF2069F1808114966C91D6
:104E500041E098010E949A31892B09F076C089813E
:104E60008F7D8983E0910104F0910204A091FF03FA
:104E7000B0910004808114966C9141E098010E94E9
:104E8000AD31892B09F061C063E070E080E090E013
:104E90000E948B3282E0898380911A048823B1F1C9
:104EA00082E831C0808114966C9141E098010E94A3
:104EB0009A31892B09F049C080910504998180FFBE
:104EC00002C0906201C09F7D9983E0910104F0913E
:104ED0000204A091FF03B0910004808114966C91AC
:104EE00041E09E012F5F3F4F0E94AD31892B69F554
:104EF00063E070E080E090E00E948B3280911A04C1
:104F0000882319F080E8898301C0198280911B04ED
:104F1000882319F0898180638983E0910104F091ED
:104F20000204A091FF03B0910004808157966C9118
:104F300041E09E012F5F3F4F0E94AD31892B29F444
:104F4000F0920C0420E030E002C02FEF3FEFC901E7
:104F50000F90CF91DF911F910F91FF900895DF93F4
:104F6000CF930F92CDB7DEB7982F80911C0489178D
:104F7000F1F1992331F180911D04882319F42FEF69
:104F80003FEF37C080E00E94431D80E00E940A2767
:104F900080911E0490911F040E9435211982E09196
:104FA0000104F0910204808163E241E09E012F5FE1
:104FB0003F4F0E94AD3181E080931C040E94431D4D
:104FC00014C080E00E94431D80910A048983E0910F
:104FD0000104F0910204808163E241E09E012F5FB1
:104FE0003F4F0E94AD3110921C040E946B1F20E0C5
:104FF00030E0C9010F90CF91DF9108952F923F9239
:105000004F925F926F927F928F929F92AF92BF92D8
:10501000CF92DF92EF92FF920F931F93DF93CF9384
:10502000CDB7DEB7E9970FB6F894DEBF0FBECDBFA0
:105030009FAB8EAB79AF68AF80911C04882311F4CD
:105040001AAA05C080E00E94AF2781E08AABCE019A
:1050500002960E94731CCE0101960E94921CCE0102
:1050600004960E94B31C80911C04882331F4E091C3
:105070000804F0910904FCABEBABF0910504FDAB27
:1050800080910A0489AB8EA99FA968AD79AD40E0F3
:105090000E949722892B51F08EA99FA968AD79AD06
:1050A00040E00E949722892B09F0F7C18E01035F2F
:1050B0001F4F89E1E82EF12CEC0EFD1EC801B7014F
:1050C00041E00E949722892B41F0C801B70141E0DD
:1050D0000E949722892B09F0E0C1E0910104F09130
:1050E000020419E0C12ED12CCC0EDD1E80816DE0B2
:1050F00044E096010E949A31892B09F07EC06C85AC
:10510000462F50E09A0120733070B4E03595279512
:10511000BA95E1F7898590E0807E9070A3E095953F
:105120008795AA95E1F7282B2E834C7050705595E2
:105130004795559547958A8590E0807E9070E3E08D
:1051400095958795EA95E1F7482B4F838B8590E0FD
:10515000807E907073E0959587957A95E1F76370FE
:10516000682B688766E0E62EF12CEC0EFD1E8E01A2
:105170000B5D1F4F0F2EFBE74F2EF4E15F2EFEEA73
:105180006F2EFEE37F2EF02D0F2EF0E08F2EF0E03D
:105190009F2EF0E0AF2EF0E0BF2EF02D1601F701AC
:1051A0008081882331F4F80180829182A282B382C7
:1051B0001CC0F8014082518262827382F701D08064
:1051C00010C0F80160817181828193812DE13AE5FF
:1051D00044E85FE30E940A39F801608371838283A7
:1051E0009383DA9471F7F70110820894E11CF11CA3
:1051F0000C5F1F4FE214F30491F6662477242224F7
:1052000033248824992451E0452E512CE8ADF9AD82
:10521000E80DF91DA9E1B0E0AC0FBD1FA80DB91D47
:1052200020813181428153818D919D910D90BC915E
:10523000A02D281B390B4A0B5B0B57FF07C050955D
:105240004095309521953F4F4F4F5F4FCA01B901AF
:105250000E94563820E030E040E857E30E940A39C7
:105260007B018C01E5E2F0E0EC0FFD1FE80DF91D7C
:10527000A080B180C280D380C601B50120E030E0BB
:1052800040E050E00E94B737882309F1C801B70118
:10529000A60195010E94BB3720E030E040E85FE3C3
:1052A0000E9452377B018C0120E030E040E050E06A
:1052B0000E940639181624F017FB109517F910955F
:1052C000C801B70129E23CE54FE05EE310C0C80128
:1052D000B7012AE939E949E95EE30E94B73787FD5A
:1052E0000AC0C801B70123E333E343E75FE30E9449
:1052F000063918164CF4C201062C02C0880F991FFB
:105300000A94E2F7282A392A0894611C711C84E067
:1053100090E0880E991E93E06916710409F076CF2B
:10532000E0910104F09102048E010A5F1F4F808119
:105330006DE043E098010E949A31892B21F047E00B
:10534000A42EB12CA0C08E818F718E838F818F711E
:105350008F8388858F718887280188249924AA24BF
:10536000BB2466247724EEA9FFA9E60DF71DADE066
:10537000B0E0AC0FBD1FA60DB71D20813181428169
:1053800053818D919D910D90BC91A02D281B390BBF
:105390004A0B5B0B57FF07C0509540953095219500
:1053A0003F4F4F4F5F4FCA01B9010E94563820E06E
:1053B00030E040E857E30E940A397B018C01F2019A
:1053C0008081882399F1D82E20E030E048EC51E428
:1053D0000AC0CA01B90124E533EE45E85FE30E9443
:1053E0000A399B01AC01DA94A1F7F2011082C801DD
:1053F000B7010E94BB3720E030E040E85FE30E9445
:1054000052377B018C0120E030E040E050E00E9408
:105410000639181624F017FB109517F91095C801D6
:10542000B70129E23CE54FE05EE310C0C801B701D7
:1054300020E030E040E251E40E94B73787FD0AC027
:10544000C801B70120E030E042ED52E40E94063985
:10545000181654F481E090E0082C02C0880F991FC0
:105460000A94E2F7A82AB92A0894811C911C84E0C6
:1054700090E0680E791E0894411C511C93E0891637
:10548000910409F070CF00E010E0AA2011F401E0CF
:1054900010E0222021F4026002C000E010E08FEF53
:1054A0008093030480930404809306042FEF3FEF5E
:1054B00030930904209308048093050480930A0420
:1054C00081E0809307048A819B810E94A21E8981CA
:1054D0000E94591E8C819D810E940F1E8BA99CA940
:1054E0000E9435218DA90E94F41E89A90E94822064
:1054F000EAA9EE2319F081E00E94AF27C801E996DE
:105500000FB6F894DEBF0FBECDBFCF91DF911F91D4
:105510000F91FF90EF90DF90CF90BF90AF909F9052
:105520008F907F906F905F904F903F902F90089555
:10553000EF92FF920F931F93DF93CF9300D000D091
:1055400000D0CDB7DEB77C0180E88983E09101040B
:10555000F0910204A091FF03B09100048081559660
:105560006C9141E08E010F5F1F4F98010E94AD3199
:10557000892B09F0C5C064E670E080E090E00E94ED
:105580008B321982E0910104F0910204A091FF0393
:10559000B0910004808155966C9141E098010E9481
:1055A000AD31892B09F0ACC0E0910104F091020407
:1055B000A091FF03B0910004808159966C9146E060
:1055C00098010E949A31892B09F09AC08E8190E04F
:1055D00081709070880F991F880F991F2C8130E07F
:1055E00021703070220F331F982F922B8A81817087
:1055F000982B49F0913019F490930D0422C0923009
:1056000009F07EC01CC0E0910104F0910204A09159
:10561000FF03B0910004808113966C9141E09801E2
:105620000E949A31892B09F06BC089818F7009F42F
:1056300067C0843021F481E080930D0402C0109291
:105640000D042FEF209305042093030420930404FA
:10565000209306048FEF9FEF909309048093080432
:1056600020930A0420930C0481E080930704809324
:105670001A0410921B0410920F0410920E048AE078
:10568000E0E1F4E0DF011D928A95E9F710921C0435
:1056900010921D0410921F0410921E0480ED97E0DA
:1056A0000E94A21E892B61F582E00E94591E892B5F
:1056B00039F58AE290E00E940F1E892B09F582E3FA
:1056C00090E00E943521892BD9F480E00E9482204D
:1056D000892BB1F4E114F10441F0F701608171818B
:1056E000828143E050E00E94B83180E00E940A27A6
:1056F000892B31F480E00E94F41E20E030E002C0EB
:105700002FEF3FEFC90126960FB6F894DEBF0FBE0C
:10571000CDBFCF91DF911F910F91FF90EF90089532
:10572000DF93CF93CDB7DEB729970FB6F894DEBFDE
:105730000FBECDBF9E012F5F3F4F882349F0D90197
:10574000EAE9F4E089E001900D928150E1F708C0A8
:10575000D901E1E9F4E089E001900D928150E1F78F
:1057600088EB94E069E070E0AE014F5F5F4F0E940C
:105770007F1D29960FB6F894DEBF0FBECDBFCF9127
:10578000DF910895DF93CF9300D0CDB7DEB765E00A
:1057900070E00E948C3979836A8388E591E062E049
:1057A00070E0AE014F5F5F4F0E947F1D0F900F9022
:1057B000CF91DF910895DF93CF9300D0CDB7DEB7BF
:1057C00065E070E00E948C3979836A838AE591E014
:1057D00062E070E0AE014F5F5F4F0E947F1D0F904F
:1057E0000F90CF91DF910895EF92FF920F931F9347
:1057F000DF93CF9300D000D0CDB7DEB77A0100E0C1
:1058000010E028EE33E040E050E00E94D539C801B6
:10581000B7010E946D39292F332744275527298343
:105820009C01552737FD5095452F2A83272F382F68
:10583000492F552747FD5A952B836C838CE591E0C2
:1058400064E070E0AE014F5F5F4F0E947F1D0F90DC
:105850000F900F900F90CF91DF911F910F91FF90BC
:10586000EF900895DF93CF9300D0CDB7DEB765E01A
:1058700070E00E948C3979836A838AED91E062E05E
:1058800070E0AE014F5F5F4F0E947F1D0F900F9041
:10589000CF91DF910895DF93CF9300D0CDB7DEB7DE
:1058A00065E070E00E948C3979836A838EED91E027
:1058B00062E070E0AE014F5F5F4F0E947F1D0F906E
:1058C0000F90CF91DF910895DF93CF930F92CDB7D3
:1058D000DEB7882311F481E003C0853008F084E04E
:1058E000815089838FE491E061E070E0AE014F5F09
:1058F0005F4F0E947F1D0F90CF91DF910895DF933E
:10590000CF930F92CDB7DEB71982282F80FF02C048
:1059100080E3898321FF03C089818C60898322FF12
:1059200003C089818360898388E491E061E070E04D
:10593000AE014F5F5F4F0E947F1D0F90CF91DF91AF
:1059400008950F931F93DF93CF93CDB7DEB72897BA
:105950000FB6F894DEBF0FBECDBF8C01893C910518
:1059600028F588EC90E0B8010E948C3961507040B5
:1059700079836A8386E192E062E070E0AE014F5F76
:105980005F4F0E947F1D892B89F481EC9AE06CE0C7
:1059900070E043EA54E00E947F1D892B39F4109394
:1059A000BC050093BB0520E030E002C02FEF3FEFC5
:1059B000C90128960FB6F894DEBF0FBECDBFCF91B8
:1059C000DF911F910F9108952F923F924F925F9216
:1059D0006F927F928F929F92AF92BF92CF92DF92FF
:1059E000EF92FF920F931F93DF93CF9300D000D0DD
:1059F000CDB7DEB72091B7053091B805F901E37056
:105A0000F070EE0FFF1FEE0FFF1FE80FF91FA080D1
:105A1000B180C280D38022FF08C0D094C094B094DB
:105A2000A094A11CB11CC11CD11CF901F695E795ED
:105A3000EC70F070E80FF91F6080718082809380B5
:105A400025FF08C09094809470946094611C711C30
:105A5000811C911CF90144E0F695E7954A95E1F720
:105A6000EC70F070E80FF91F208031804280538085
:105A700030FF08C05094409430942094211C311C75
:105A8000411C511C86017501110FEE08FE2C870187
:105A90009501A6016E2D7E2D8E2D9E2DB9E0AB2E8B
:105AA000A3EEBA2EFAECCF2EE2E0DE2EEE24FF2497
:105AB00000E010E00E9489060EE10E940308C9017F
:105AC000DA012B2F33274427552729839D0155279A
:105AD00037FD5095452F2A83292F3A2F4B2F5527D5
